:020000040800F2
:1000000000040020DD0200080D700008DF02000877
:10001000DF020008DF020008DF020008DF0200083C
:10002000DF020008DF020008DF0200087DAB0008E5
:10003000DF020008DF020008DF020008DF0200081C
:10004000DF020008DF020008DDC8000839C9000827
:10005000DF020008DF020008CDBA0008F5BA000888
:100060001DBB000845BB00086DBB000855C000085B
:1000700069C000087DC0000891C00008A5C0000844
:10008000B9C00008CDC00008DF020008DF02000888
:10009000DF020008DF020008DF02000895BB00084D
:1000A000DF020008DF020008DF020008DF020008AC
:1000B0007DBC0008DF020008DF0200082DC4000834
:1000C00039C50008DF020008DF020008DF0200086F
:1000D000DF020008DF02000869BC0008DF02000838
:1000E000F9BB000871C90008DF020008DF02000840
:1000F000DF020008DF020008DF020008DF0200085C
:10010000DF020008DF020008DF020008DF0200084B
:10011000DF020008DF020008DF020008DF0200083B
:10012000E1C00008F5C0000809C100081DC10008B1
:1001300031C10008DF020008DF020008DF0200080A
:10014000DF020008DF020008DF020008C9CE000855
:1001500045C1000859C10008DF020008DF0200089D
:10016000DF020008DF020008DF020008DF020008EB
:10017000DF020008DF020008DF020008DF020008DB
:10018000DF020008DF020008DF020008DF020008CB
:10019000DF020008DF020008DF020008DF020008BB
:1001C00072B6374880F30888364880F30988364885
:1001D0003649086040F20000CCF200004EF634715F
:1001E000CEF200010860BFF34F8FBFF36F8F40F274
:1001F0000000C0F2F0004EF68851CEF20001086017
:10020000BFF34F8FBFF36F8F4FF00000E1EE100A86
:100210004EF63C71CEF200010860062080F314888F
:10022000BFF36F8F0AF088F909F05CFF4FF055308B
:100230001F491B4A91423CBF41F8040BFAE71D4994
:10024000184A91423CBF41F8040BFAE71A491B4A8D
:100250001B4B9A423EBF51F8040B42F8040BF8E7DF
:1002600000201849184A91423CBF41F8040BFAE7B4
:100270000AF066F90AF061F9144C154DAC4203DA44
:1002800054F8041B8847F9E706F0DBF9114C124DCE
:10029000AC4203DA54F8041B8847F9E70AF04EB978
:1002A00000040020000C00200000000808ED00E021
:1002B000000000200004002078E20008000C00206C
:1002C000241000202810002028690020A001000828
:1002D000A0010008A0010008A001000870E700F0DC
:1002E00000F8FEE72DE9F04F2DED108AC1F80CD093
:1002F000C3689D46BDEC108ABDE8F08F002383F3F0
:1003000011882846A04700200AF0B8FBFEE70AF053
:1003100013FB00DFFEE7000053B94AB9002908BF0C
:1003200000281CBF4FF0FF314FF0FF3000F074B9D0
:10033000ADF1080C6DE904CE00F006F8DDF804E03C
:10034000DDE9022304B070472DE9F047089E04461A
:100350008846002B40F085808A42154648D9B2FA7B
:1003600082F24AB1C2F1200701FA02F320FA07F73C
:10037000954047EA030894404FEA154E230CB8FB1A
:10038000FEF71FFA85FC0EFB178843EA084307FBBC
:100390000CF1994209D9EB1807F1FF3080F0E380A6
:1003A000994240F2E080023F2B445B1AA4B2B3FBB7
:1003B000FEF00EFB103344EA034400FB0CFCA445A2
:1003C00009D92C1900F1FF3380F0CB80A44540F20D
:1003D000C88002382C4440EA0740A4EB0C040027F4
:1003E0001EB1D4400023C6E900433946BDE8F0877A
:1003F000002A53D0B2FA82F2002A40F0B680491B9C
:100400004FEA154E1FFA85F80127B1FBFEFC230CBD
:100410000EFB1C1143EA014308FB0CF1994207D97A
:10042000EB180CF1FF3002D2994200F2EC808446C6
:10043000591AA3B2B1FBFEF00EFB101443EA0444B8
:1004400008FB00F8A04507D92C1900F1FF3302D2B0
:10045000A04500F2DC801846A4EB080440EA0C40FA
:10046000BEE78B4208D9002E78D00027C6E90001EC
:1004700038463946BDE8F087B3FA83F77FB98B4237
:1004800002D3824200F2BD80841A61EB0303012093
:100490009846002EA9D0C6E90048A6E7FFDEC7F1BE
:1004A0002005BB4022FA05FC4CEA030C01FA07F4D4
:1004B00020FA05F821FA05F34FEA1C4E48EA040435
:1004C000B3FBFEF9210C0EFB19331FFA8CF841EA3D
:1004D000034309FB08FA9A4502FA07F200FA07F10A
:1004E0000BD91CEB030309F1FF3080F088809A459B
:1004F00040F28580A9F102096344A3EB0A03A4B288
:10050000B3FBFEF00EFB103344EA034400FB08F893
:10051000A04508D91CEB040400F1FF336BD2A045C1
:1005200069D90238644440EA0940A4EB0804A0FBFE
:1005300002894C45C6464B4654D351D0002E69D053
:10054000B1EB0E0264EB030404FA05F522FA07F39B
:10055000FC401D43C6E90054002746E737463046B5
:1005600043E7184637E707461FE7C2F1200320FAA2
:1005700003F7954001FA02F021FA03F34FEA154E12
:100580003843010CB3FBFEF71FFA85F80EFB173357
:1005900041EA034107FB08F38B4204FA02F407D94E
:1005A000691807F1FF3C28D28B4226D9023F294423
:1005B000CB1A81B2B3FBFEF00EFB103341EA0341CC
:1005C00000FB08F38B4207D9691800F1FF3C10D2F9
:1005D0008B420ED902382944C91A40EA074714E76A
:1005E0004145ABD2B8EB020E69EB0C020138134661
:1005F000A4E76046F0E7184695E76746D8E78146E6
:100600007BE7384645E7ACF1020C2B4410E7023893
:100610002C4421E73746E8E6704700BF08B50620BE
:1006200000F01EFA01200CF079FF00BF032A70B41D
:1006300012D940EA0105AD0704460B4620D1194600
:10064000204653F8045B54F8046BAE4218D1043AC8
:10065000032A20461946F2D8541E72B103780A784C
:100660009A4208BF241806D00CE010F8013F11F898
:10067000012F934206D1A042F7D1002070BC7047F1
:10068000541EEBE7981A70BC704700BF844641EADD
:10069000000313F003036DD1403A41D351F8043BFA
:1006A00040F8043B51F8043B40F8043B51F8043B4C
:1006B00040F8043B51F8043B40F8043B51F8043B3C
:1006C00040F8043B51F8043B40F8043B51F8043B2C
:1006D00040F8043B51F8043B40F8043B51F8043B1C
:1006E00040F8043B51F8043B40F8043B51F8043B0C
:1006F00040F8043B51F8043B40F8043B51F8043BFC
:1007000040F8043B51F8043B40F8043B51F8043BEB
:1007100040F8043B51F8043B40F8043B403ABDD25A
:10072000303211D351F8043B40F8043B51F8043BFC
:1007300040F8043B51F8043B40F8043B51F8043BBB
:1007400040F8043B103AEDD20C3205D351F8043B8B
:1007500040F8043B043AF9D2043208D0D2071CBF57
:1007600011F8013B00F8013B01D30B880380604680
:10077000704700BF082A13D38B078DD010F00303F6
:100780008AD0C3F10403D21ADB071CBF11F8013B66
:1007900000F8013B80D331F8023B20F8023B7BE7B5
:1007A000043AD9D3013A11F8013B00F8013BF9D2E0
:1007B0000B7803704B7843708B788370604670477A
:1007C000F0B4860746D0541E002A3CD0CAB2034675
:1007D00002E014F1FF3436D303F8012B9D07F8D162
:1007E000032C29D9CDB245EA05250F2C45EA05454C
:1007F00033D9A4F11006360903F1200707EB0617D9
:1008000003F1100242E9045542E902551032BA429E
:10081000F8D1721C14F00C0F03EB021204F00F0657
:1008200013D0331F23F003030433134442F8045B53
:100830009342FBD106F003042CB1C9B21C4403F867
:10084000011B9C42FBD1F0BC704734461346002C80
:10085000F3D1F8E714460346C2E71A462646E0E716
:1008600038B5124B1C68A26B05461AB10023C2E9C9
:10087000045338BD182000F0F7F90246A06378B1A0
:10088000012000210A4B1360C2E904010B2309482F
:10089000094993810023C2E90101C2E9045338BD2B
:1008A000064B0748422100F099F900BF000C0020D8
:1008B0000E33CDAB34126DE6ECDE0500A8E1000886
:1008C000C0E1000838B51A4B1C68A26B92B11469DC
:1008D00018495369184801FB04F100FB0313A4FBFA
:1008E0000045611C1D4445F1000323F00040C2E9AE
:1008F000041338BD182000F0B7F90246A06388B190
:1009000001200021C2E904010A480C4C0C4B0D499E
:100910000D4D146053600B24034695609481C2E929
:10092000041338BD094B0A484E2100F057F900BFA7
:10093000000C00202DF451582D7F954C0E33CDAB7B
:1009400034126DE62E7F954CECDE0500A8E1000820
:10095000C0E1000810B58021044600F0EBF96064A6
:1009600040B1031F00227C3043F8042F8342FBD1A7
:10097000002010BD4FF0FF3010BD00BF436C0BB125
:1009800000207047E6E700BF1F2970B5054608D86C
:10099000436C16460C464BB153F8240043F82460D0
:1009A00070BD162202604FF0FF3070BDFFF7D2FF1E
:1009B00008B96B6CF0E74FF0FF3070BD1F2938B5F8
:1009C00021D8426C05460C466AB152F8213053B129
:1009D000012B16D0591C10D00025204642F8245077
:1009E0009847284638BD284600F070F82246014650
:1009F0002846BDE8384000F055B8162303600120B2
:100A000038BD002038BD162303604FF0FF3038BDDD
:100A10001F2921D838B5436C05460C4683B153F8DD
:100A2000242003EB84034AB1511C10D0012A0CD0BE
:100A3000002520461D609047284638BD012038BD5E
:100A4000FFF788FF28B96B6CE9E7032038BD022067
:100A500038BD4FF0FF3038BD4FF0FF30704700BF5A
:100A6000024B01461868FFF7A9BF00BF000C002029
:100A7000024B0A4601461868FFF786BF000C0020AB
:100A8000034B1868436C0BB10020704762E700BF4E
:100A9000000C0020024B01461868FFF7B9BF00BFE9
:100AA000000C002038B50B46074C05461146184689
:100AB000002323600CF03AFD431C00D038BD2368AE
:100AC000002BFBD02B6038BD006900200CF036BD38
:100AD0000000000000000000000000000000000016
:100AE0000000000000000000000000000000000006
:100AF00000000000000000000000000000000000F6
:100B000090F800F06DE9024520F007016FF0000C4D
:100B100010F0070491F820F040F049804FF00004F5
:100B20006FF00700D1E9002391F840F000F10800D0
:100B300082FA4CF2A4FA8CF283FA4CF3A2FA8CF308
:100B40004BBBD1E9022382FA4CF200F10800A4FA6F
:100B50008CF283FA4CF3A2FA8CF3E3B9D1E90423C3
:100B600082FA4CF200F10800A4FA8CF283FA4CF3FA
:100B7000A2FA8CF37BB9D1E9062301F1200182FAB4
:100B80004CF200F10800A4FA8CF283FA4CF3A2FABA
:100B90008CF3002BC6D0002A04BF04301A4612BAC8
:100BA000B2FA82F2FDE8024500EBD2007047D1E9CB
:100BB000002304F00305C4F100004FEAC50514F05A
:100BC000040F91F840F00CFA05F562EA05021CBF2B
:100BD00063EA050362464FF00004A9E700B50A4C3A
:100BE0002668054685B01C46F06852B1074B009157
:100BF000CDE9013206492B46224600F021F8FFF7E5
:100C00000DFD044B1A46F2E7000C0020F4E1000849
:100C100004E2000800E2000808B513460022FFF7CE
:100C2000DDFF00BF0CB400B583B004AB53F8042B58
:100C3000019300F027F903B05DF804EB02B07047B0
:100C40000EB410B583B005AB064C53F8042B0193DA
:100C50000146206800F016F903B0BDE8104003B06B
:100C6000704700BF000C0020024B0146186800F0DE
:100C700061B800BF000C0020024B0146186800F06C
:100C800003B800BF000C002000293CD038B551F853
:100C9000043C0C1F002BB8BFE418054601F0A0FA75
:100CA000234B1A682AB1A2420DD9216860188242EA
:100CB00023D0626028461C60BDE8384001F096BA37
:100CC000A34203D81A465368002BF9D11168501873
:100CD000A04219D024D821686018834206D06360EE
:100CE00054602846BDE8384001F080BAD3E90003DB
:100CF0000144636021605460F3E7D2E900020144DB
:100D000062602160D6E77047206801445018834232
:100D10001160E6D1D3E90003014453601160E0E7BC
:100D20000C232B602846BDE8384001F05FBA00BFB5
:100D300028100020F8B5CD1C25F0030508350C2D32
:100D400038BF0C25002D064633DBA94231D82A4F87
:100D500001F046FA3A6852B113685B1B04D43FE0D5
:100D600023685B1B29D522465468002CF8D179688A
:100D700000293BD0294630460CF0B4FB431C28D058
:100D8000C41C24F00304A04205D0211A30460CF004
:100D9000A9FB01301DD02560304601F027FA04F18F
:100DA0000B0020F00700231DC21A01D01B1AA3500C
:100DB000F8BD0C2232600020F8BD0B2B05D8A242F2
:100DC000636811D05360E7E7144623601C44256034
:100DD000E2E70C233046336001F008FA0020F8BD4A
:100DE0000B2BF1D8536814463B60D5E730460CF026
:100DF00079FB7860BEE700BF281000209368013BB4
:100E0000002B936011DA10B49469A34209DB0A291C
:100E100007D01368581C1060197008465DF8044B21
:100E200070475DF8044B00F09FBB1368581C1060BE
:100E300019700846704700BF9BB1F8B513440F46C0
:100E400006465D1E541E01E0AC4208D03A4614F836
:100E5000011F3046FFF7D2FF431CF5D1F8BD00203B
:100E6000F8BD0020704700BF936810B5144613B951
:100E70005360184610BD00F09BFE0023C4E9013307
:100E800010BD00BF2DE9F04F9FB08B4690461C4629
:100E9000039018B18369002B00F0C580AC4B9B45D3
:100EA00000F0C780AB4B9B4500F0C780AA4B9B4529
:100EB00004BF039BD3F80CB0DBF86430BBF80C2004
:100EC000DB0702D4970540F15381160740F12781D3
:100ED000DBF81030002B00F0228130238DF8323007
:100EE00098F800300594002120220B919B4E8DF83C
:100EF00031200127002B00F08580252B00F00D818B
:100F0000454603E0252B00F09C8025466B786C1C41
:100F1000002BF7D1B4EB080A74D042465346594629
:100F20000398FFF789FF01306CD00B9B6A7853441C
:100F30000B93002A66D000234FF0FF320134069352
:100F4000CDE908338DF85B301C93079205E0069AD3
:100F500007FA03F313432C4606932546052215F89A
:100F6000011B304601F084F8AA46831B0028EED10D
:100F7000069BD80644BF20228DF85B2019072178F4
:100F800044BF2B228DF85B202A295FD1059A116876
:100F9000043200290592C0F2958009916178A51C60
:100FA0002E296CD06E4C0322204601F061F80028F7
:100FB0007ED0001B069B402404FA00F003430693F6
:100FC00005F10108297867488DF83010062201F0F4
:100FD0004FF800287CD0644B002B6CD005AB0093FD
:100FE0005A46624B039806A9AFF300808146B9F1D7
:100FF000FF3F07D00B9B4B440B9398F80030002B1E
:101000007FF47BAFDBF8643013F0010FBBF80C30DA
:1010100002D19A0540F1B3805B0600F193800B98F2
:101020001FB0BDE8F08F00F0ABFC494B9B457FF44F
:1010300039AF039BD3F804B03EE7039BD3F808B065
:101040003AE7B4EB080A3FF476AF66E7A1F1300265
:10105000092A88BFA246A3D8099B01E02C46013586
:10106000297803EB830302EB4303A1F13002092A41
:10107000AA46F3D92E2904F10205099392D19AF8D0
:1010800001102A292ED1059B9AF802101A6807929E
:101090000433002A05930AF103050AF1020337DB42
:1010A0002F4C032220469A4600F0E2FF002880D110
:1010B000A846554686E7059B073323F00703083308
:1010C000059397E7494243F002030991069365E7C8
:1010D00005AB00935A46254B039806A900F0F8F893
:1010E000814684E7A1F130020023092A079301D940
:1010F0002BE05546697803EB830302EB4303A1F130
:101100003002092A05F1010AF3D90235079349E7AC
:101110004FF0FF329A46079244E744460BE75946A0
:10112000039800F081FA00283FF4D7AEDBF8643072
:10113000DD0707D4BBF80C309C0503D4DBF858005E
:1011400000F01CFF4FF0FF306AE7AA46013529E79F
:10115000C8D50008A8D5000888D5000834E20008E2
:101160003CE2000840E2000800000000390E0008E0
:10117000DBF8580000F0FAFEBBF80C20A5E6DBF81F
:10118000580000F0FBFEBBF80C3045E710B4044CEF
:1011900013460A46014620685DF8044BFFF772BE0D
:1011A000000C00202DE9F0470C4691460A69896839
:1011B000DDF820808A42B8BF0A46C9F8002094F8BA
:1011C000431006461F4611B10132C9F800202368BA
:1011D00099065CD5D9F800200232C9F800202368AE
:1011E00013F0060F19461DD1E1688A1A002AD8BFEC
:1011F000194617DD04F1190A002505E0E368D9F85E
:1012000000209B1AAB420CDD012352463946304682
:10121000C047013005F10105F0D14FF0FF30BDE8C6
:10122000F087216894F84330003318BF01238A0601
:101230000AD5E1185A1C302081F84300224494F862
:10124000451082F84310023304F143023946304618
:10125000C0470130E1D02368A268216903F006038A
:10126000042B1DD08A4226DD4FF00009521A91440A
:101270001A34002501E04D451DDA01232246394686
:101280003046C047013005F10105F4D1C5E713F040
:10129000060F13D094F84330003318BF0123D3E76F
:1012A000D9F80000E3688A42A3EB000323EAE3795C
:1012B000DCDC002BDCDC0020BDE8F087E168D9F83D
:1012C00000208A1A002AD8BF194693DCAAE700BF7B
:1012D0002DE9F0430C46097E85B06E290646174677
:1012E0000C98984604F1430E6DD039D9732900F05B
:1012F000F68044D9752900F00481782940F01181E5
:1013000078232268DFF858C284F845300168150652
:1013100051F8043B016040F1A180D10744BF42F085
:1013200020022260002B00F093801022002184F81C
:1013300043106068A0600028C0F2C880216821F0D6
:1013400004012160002B40F0A380002840F0C08001
:101350007546082A00F0AC80AEEB0503236141E03E
:10136000632900F0E5801AD8002938D0582940F0C8
:10137000D88084F845102268DFF8E8C1C6E76F29F5
:1013800000F0BF80702940F0CC802268DFF8D0C127
:1013900042F020027823226084F84530B6E76429C1
:1013A00002D0692940F0BD8022680368110603F16C
:1013B000040557D5196805600B46002959DBDFF88D
:1013C000A4C10A22B5E70368226861691D1D056092
:1013D00015061B6802D4500600F1BD801960002379
:1013E00075462361CDF800803B4603AA214630466E
:1013F000FFF7D8FE013020D02A462369394630460F
:10140000C047013019D022680398E368920719D5C4
:101410001A1A002A16DD04F11909002504E0E36810
:1014200003981A1AAA420DDD01234A46394630466E
:10143000C047013005F10105F1D14FF0FF3005B093
:10144000BDE8F0839842B8BF184605B0BDE8F08308
:10145000226822F020022260102267E7500648BF6F
:101460009BB25AE75106A5D5B3F90030056019467D
:10147000A3E76168A1602D200029C3F1000384F86F
:10148000430002DB22F004022260DFF8D8C00A2207
:10149000754600E00B46B3FBF2F102FB11309342BC
:1014A0001CF8000005F8010DF4D2082A7FF454AFAF
:1014B0002368DB077FF550AF626823699A423FF7E4
:1014C0004BAF302305F8013C013D45E7002BDFD150
:1014D0009CF8003084F8423004F1420539E7036893
:1014E0006268191D01601D680021284600F0C0FDDA
:1014F000002832D0401B60602061002384F8433014
:1015000070E72268036812F0800F03F104051AD017
:101510001B6805606F290CBF08220A22DFF844C04F
:1015200004E7012384F84210236104F14205E4E753
:1015300003681A68191D0123016004F1420584F84B
:1015400042202361D9E712F0400F0DBF1B680560F0
:101550001B880560DEE7198041E76068CCE700BFC3
:101560005CE2000848E20008F8B50D46144606465D
:1015700008B1836943B3254B9C422AD0244B9C423B
:1015800029D0244B9C4208BFF468A389A269A260B9
:101590001A0722D5236903B322686169D31AEDB211
:1015A00099422F4629DD0133A168501C0139A16001
:1015B0002060157062699A4216D0A389DB0701D5B5
:1015C0000A2D11D03846F8BD00F0DAF90F4B9C42D5
:1015D000D4D17468D9E7B468D7E72146304600F023
:1015E00023F838B92369D7E72146304600F032F9AD
:1015F0000028E7D04FF0FF37E4E72146304600F0FF
:1016000029F90028F6D122680123CDE7C8D50008C2
:10161000A8D5000888D50008024B0A46014618687C
:10162000FFF7A2BF000C00203B4B70B51D680646BB
:101630000C460DB1AB69DBB1384B9C421ED0384B28
:101640009C424AD0374B9C4208BFEC68B4F90C204E
:1016500093B2190718D5206908B313F001022CD0F2
:10166000636900225B42A361A26060B3002070BD89
:10167000284600F085F9294B9C42E0D16C68B4F90A
:101680000C2093B21907E6D4DD063CD5580726D4C2
:10169000206942F00803A3819BB20028DDD103F446
:1016A0002072B2F5007FD8D03046214600F096FC7B
:1016B000A389206913F00102D2D1990758BF62694A
:1016C000A2600028D2D1B4F90C301A06CFD543F06D
:1016D0004003A3814FF0FF3070BDAC68B6E7616B8B
:1016E00051B104F14403994204D03046FFF7CCFADB
:1016F000B4F90C200023636300232069636022F0A7
:1017000024022060C5E742F04002092333604FF015
:10171000FF30A28170BD00BF000C0020C8D50008BA
:10172000A8D5000888D500088B891A072DE9F04153
:101730000C46804641D44A68002A59DDE66A002EEC
:1017400053D00022D8F80050216AC8F8002013F4C2
:10175000805251D101234046B047431C5FD0A3893A
:10176000E66A216A5F0705D56268636B801A0BB170
:10177000236CC01A024600234046B047461C45D1A0
:10178000D8F80030B4F90C20002B55D01D2B01D017
:10179000162B5AD123690022C4E90032616BC8F8C4
:1017A000005011B304F14403994202D04046FFF7C0
:1017B0006BFA00206063BDE8F0810E69AEB10D6880
:1017C0000E6099070CBF63690023AD1BA3600AE09C
:1017D0002B463246A76A216A4046B8470028A5EB47
:1017E000000506440ADD002DF2DC0020BDE8F08192
:1017F0000A6C002AA2DCF8E7606DB3E7A38943F026
:101800004003A3814FF0FF30BDE8F0812269A38936
:10181000226000226260DA04C0D56065BEE7D8F8B5
:101820000030002B9BD01D2B0CD0162B0AD0A38987
:1018300043F04003A381D9E72169C4E90013D3042D
:10184000ACD5EAE7C8F80050CFE742F04002A281E9
:10185000CCE700BF38B50B691BB30C46054608B191
:1018600083691BB3184B9C421ED0184B9C4220D05E
:10187000174B9C4208BFEC68B4F90C308BB1626E18
:10188000D00701D4990516D528462146FFF74CFF0D
:10189000636EDA07054602D4A3899B050FD5284657
:1018A00038BD0025284638BD6C68E5E700F068F8CB
:1018B000D8E7AC68E0E7A06D00F058FBE4E7A06D66
:1018C00000F05CFBEBE700BFC8D50008A8D5000816
:1018D00088D5000820B1054B01461868FFF7BABF4C
:1018E000034B0449186800F00DBB00BF000C00203A
:1018F00084D5000855180008014900F003BB00BF5B
:101900005518000808B5436EDA0702D483899B0591
:1019100001D5002008BD806D00F028FB002008BD27
:1019200008B5436EDA0702D483899B0501D50020F0
:1019300008BD806D00F022FB002008BD70B54A1E76
:10194000682505FB02F50E4605F17401FFF7F2F973
:10195000044640B100210C30666005F16802216048
:10196000A060FEF72DFF204670BD00BF024B03496B
:10197000186800F0C7BA00BF84D5000855180008E1
:101980002DE9F84F05463A4800F0F0FAAB69002B14
:1019900068D1384A2B6512683749A962AA42C5E95D
:1019A000123304BF0123AB61284600F073F868606E
:1019B000284600F06FF8A860284600F06BF86E68C3
:1019C000E86000240423F3607466C6E90044B46050
:1019D000C6E90444B461214606F15C000822FEF722
:1019E000EFFEDFF8A0B0AF68DFF89CA0DFF89C90B6
:1019F000DFF89C80214BC6F83080C6E9086BC6E949
:101A00000AA92146FB607C66C7E90044BC60C7E9BF
:101A10000444BC6107F15C000822FEF7D1FEEE68C9
:101A2000174BC7F83080C7E9087BC7E90AA92146E8
:101A3000F3607466C6E90044B460C6E90444B46166
:101A400006F15C000822FEF7BBFE0123C6E9086B25
:101A5000C6E90AA9C6F830800548AB61BDE8F84F71
:101A600000F08CBA0248BDE8F84F00F087BA00BF1A
:101A70001069002084D50008F91800080900010049
:101A800012000200452200086D220008AD22000865
:101A9000CD22000870B50646244800F067FA244BB2
:101AA0001D68AB697BB34835D5E90134013B05D5E9
:101AB00025E0013B5A1C04F1680420D0B4F90C2045
:101AC000002AF6D100251B4BE36004F1580065663F
:101AD00000F044FA154800F051FA2560C4E90155B8
:101AE000C4E90455A5612946082204F15C00FEF70B
:101AF00067FEC4E90D55C4E91255204670BD2C6837
:101B00002CB12546D0E72846FFF73AFFCBE7042162
:101B10003046FFF713FF044628600028F1D1034840
:101B200000F02CFA0C233360E7E700BF24690020A3
:101B300084D500080100FFFF014800F017BA00BF7C
:101B400024690020014800F019BA00BF2469002070
:101B5000014800F00BBA00BF10690020014800F0F6
:101B60000DBA00BF1069002008B5054800F0FEF965
:101B7000044B05491868BDE8084000F09DB900BF56
:101B800024690020000C00200519000808B5054B49
:101B90000549186800F090F90448BDE8084000F0D5
:101BA000EDB900BF000C00202119000824690020B5
:101BB0009368002B00F002812DE9F04FB1F90C3051
:101BC0009BB20C46190783B08246904635D52269F0
:101BD0009AB313F00202D8F800603DD00027D4F881
:101BE00028B0D4F820C0DFF8CC923D464D452B46B6
:101BF0003A4628BF4B4661465046D5B1D8470028E3
:101C000040F3D280D8F808301B1A07442D1AC8F8C0
:101C10000830002B00F0B780D4F820C0D4F828B0EA
:101C20004D452B463A4628BF4B4661465046002D4F
:101C3000E4D1D6E900750836D8E721465046FFF7CB
:101C4000F3FC002840F03081B4F90C30D8F8006083
:101C50009BB213F00202C1D113F0010940F0B08031
:101C6000A76820684D46002D54D09A0540F1BC80ED
:101C7000AF42BB4600F2E78013F4906F2FD0D4E957
:101C8000041707EB4707A0EB010B07EBD777681C9E
:101C90007F105844B8423A4684BF07463A465B052F
:101CA00040F1E98011465046FFF744F8002800F063
:101CB000F5805A4621690190FEF7E8FCA289019B54
:101CC00022F4906242F08002A281A7EB0B0203EBA8
:101CD0000B00676123612060A2602F46AB465A4625
:101CE000494600F015FAA2682368D21B5B442F46D0
:101CF000A26023600025D8F80830DB1BB944C8F87F
:101D00000830002B3FD0B4F90C30A76820689BB294
:101D1000002DAAD1D6E900950836A4E70BF10803F7
:101D200053E902679B460833002FF9D03A460A214F
:101D3000304600F09DF9002853D00130A0EB060991
:101D40004B46D4E904122068BB4228BF3B46884278
:101D500003D9A5681544AB4219DC9A427DDC1346D1
:101D6000A56A216A32465046A847051E1CDDB9EB1C
:101D700005096BD00120D8F808305B1B2E447F1B6F
:101D8000C8F8083013BB002003B0BDE8F08F31461F
:101D90002A4600F0BDF923682B44236021465046B3
:101DA000FFF758FD0028E2D0B4F90C3043F04003AF
:101DB0004FF0FF30A38103B0BDE8F08F00207047E3
:101DC00033469146104617464E469B46002FA5D0F7
:101DD0000028B5D13A460A21304600F049F90028DA
:101DE000ABD17B1C9946ACE72369834215D361696B
:101DF000A94212D82E4BA76A9D4294BF2B466FF082
:101E000000434A4693FBF1F3504601FB03F3216A7A
:101E1000B847071EC8DDED1B6DE7AF4228BF2F4650
:101E20003A46494600F074F9A3682268DB1B3A443D
:101E3000A3602260002BEED121465046FFF70AFD39
:101E40000028E8D0B0E72F46AB4648E72146504689
:101E5000FFF700FD00288ED0A6E71A463146019311
:101E600000F056F9019BA1682268C91A1A44A160C2
:101E700022601D467BE7504600F0BEF9034600286D
:101E80007FF423AF21695046FEF7FEFEB4F90C3013
:101E90000C2223F08003CAF8002087E70C23CAF83D
:101EA0000030B4F90C3081E74FF0FF306CE700BF31
:101EB000FEFFFF7F00FCFF7F2DE9F04110F1480796
:101EC0001BD088460026D7E90154013D0FD4A389D1
:101ED000012B05F1FF3506D9B4F90E300133204648
:101EE00001D0C04706436B1C04F16804EFD13F6882
:101EF000002FE8D13046BDE8F0813E463046BDE8CF
:101F0000F08100BF2DE9F84310F148071FD0884643
:101F100006464FF00009D7E90154013D11D4A389C9
:101F2000012B05F1FF3508D9B4F90E3001332146F4
:101F3000304602D0C04749EA00096B1C04F168042E
:101F4000EDD13F68002FE6D14846BDE8F883B94699
:101F50004846BDE8F88300BF704700BF704700BF28
:101F6000704700BF704700BF704700BF704700BF99
:101F70000120704701207047704700BF704700BFC5
:101F800070B50C46B1F90E10002996B016461D46E4
:101F900013DB6A460BF0B3FA00280EDB019A02F459
:101FA0007042A2F50052B2FA82F252094FF48063F5
:101FB00000202A60336016B070BDA38900221B0682
:101FC0002A6004D540230020336016B070BD4FF462
:101FD00080630020336016B070BD00BF8A8992070D
:101FE0000B4606D501F1470201211A60C3E904211D
:101FF000704770B582B001AB6A460C460646FFF7E3
:10200000BFFF009905463046FEF794FEB4F90C3048
:1020100070B11649B162019A0099206043F08003C3
:10202000A381C4E904018AB92B43A38102B070BD26
:102030009A05FBD423F0030304F1470243F00203A3
:102040000121A3812260C4E90421EFE73046B4F9FD
:102050000E100BF060FA10B9B4F90C30E4E7A38964
:1020600023F0030343F001031BB2DDE7F918000876
:1020700001F0FF01102A2BDB10F0070F08D010F839
:10208000013B013A8B422DD010F0070F42B3F6D13D
:10209000F0B441EA012141EA014122F007047FF056
:1020A00000070023F0E80256083C85EA010586EAAD
:1020B000010685FA47F5A3FA87F586FA47F6A5FAE9
:1020C00087F68EB9EED1F0BC01F0FF0102F00702F5
:1020D00032B110F8013B013A83EA010313B1F8D1A0
:1020E0000020704701387047002D06BF3546033881
:1020F000073815F0010F07D1013015F4807F02BFBA
:10210000013015F4C03F0130F0BC0138704700BF0A
:102110008842F0B40DD98B1883420AD9841832B1A1
:10212000224613F8014D02F8014D9942F9D1F0BC55
:1021300070470F2A0ED80346541E002AF7D00134E8
:102140000C44013B11F8012B03F8012FA142F9D1F6
:10215000F0BC704740EA01039B073BD1A2F1100796
:102160003F0901F1200606EB071601F1100300F10B
:10217000100453F8105C44F8105C53F80C5C44F8FD
:102180000C5C53F8085C44F8085C53F8045C44F8B1
:10219000045C1033B34204F11004EAD17B1C1B0130
:1021A00012F00C0F194402F00F05034415D0043D42
:1021B000AD0803EB850C1C1F0E4656F8047B44F853
:1021C000047F6445F9D10135AD002B44294402F068
:1021D0000302B1E7541E0346B1E72A46ACE700BF4D
:1021E0000148FFF7C3BE00BF146900200148FFF794
:1021F000C5BE00BF1469002009B3F8B51446CAB1C2
:1022000006460D4600F066F8A04202D32F46384637
:10221000F8BD21463046FEF78DFD07460028F6D072
:1022200022462946FEF732FA30462946FEF72CFDB3
:102230003846F8BD2746FEF727FD3846F8BD11465B
:10224000FEF778BD10B50C46B1F90E100BF03FF952
:10225000002803DB636D0344636510BDA38923F489
:102260008053A38110BD00BF002070472DE9F041CD
:102270001646B1F90C201F46D3050C460546B1F9A8
:102280000E1009D422F48052A2813B4632462846E1
:10229000BDE8F0410BF022B9002202230BF01CF93B
:1022A000B4F90C20B4F90E10ECE700BF10B50C46E1
:1022B000B1F90E100BF010F9A389421C0EBF23F4E4
:1022C000805343F480536065A38110BDB1F90E10B3
:1022D0000BF006B951F8043C181F002BBCBF0B587B
:1022E000C01870474FF6FF73013880B2984200D192
:1022F000704700BFF8E70000F8B50225124E01460E
:1023000010224FF090442F4611F4004F4FF4004339
:1023100067834FF0010014BF33837383490089B290
:10232000FFF7E0FF25830120FFF7DCFF013A12F001
:10233000FF02E9D10120FFF7D5FF01226283104699
:10234000FFF7D0FF2283F8BD0008004838B53023DE
:1023500083F31188012220F00F0500F00F0002FA2C
:1023600000F421462846A4B209F04AFF6C830023FA
:1023700083F3118838BD08B5302383F31188012118
:1023800000F00F039940202220F00F0009F038FFE1
:10239000002383F3118808BD08B5054B1868431C5A
:1023A00001D0FFF7D3FF0020BDE80840FFF7A4BF2E
:1023B000640C0020F8B505460C4671BB204B18682C
:1023C000471C3CD0FFF7C2FF6420FFF78BFF0120C2
:1023D000A0401C4F2A1F6FEA000C143557F8041B4D
:1023E00052F8043F4E1C20D021F00F0601F00F01DF
:1023F000366926FA01F1C90717D4034395421360E1
:10240000ECD1ACB90E4B1868431C01D0FFF7B3FFF9
:102410006420BDE8F840FFF765BF4B1E01209840DF
:10242000C04380B2FFF768FFCEE70CEA0303E5E79D
:102430000F2CEDD94FF6FF70FFF75EFFE8E7F8BD10
:10244000640C0020A80C002038B5154D062455F862
:10245000040B421C01D0FFF78EFF013C14F0FF0477
:10246000F5D101224FF400410E4809F0C9FE0122C6
:1024700011464FF0904009F0C3FE4FF0904001220A
:10248000022109F0BDFE084B1868431C01D0FFF77C
:1024900072FF4FF6FF70BDE83840FFF72DBF00BF59
:1024A000A80C002000080048640C002030B587B05C
:1024B0000546182200216846FEF782F90024E1B2A1
:1024C00068460134FFF776FF112CF8D118226946CF
:1024D0002846FEF7ABF8002814BF0124002404D0DE
:1024E000182269462846FEF7D1F8204607B030BDCD
:1024F000034B1B78032B06BF024B18780020704754
:10250000301000203210002008B52022002104489D
:10251000FEF756F9034A00231370034A137008BDEF
:102520004D2000206D2000204C20002037B50E4AA1
:10253000ADF8040010780D49431C03F00F030C782C
:10254000DDB2AC4202BF013303F00F030B70084B46
:10255000144601A9022203EB4000FEF797F8012080
:10256000257003B030BD00BF6D2000204C2000203E
:102570004D20002008B50F4B01221A70FFF7C4FF51
:1025800000F04EFA00F050FF202240214FF0904022
:1025900009F036FE01F02AFB02F0A6F803F072FC07
:1025A000054B1880054B1A78C0F3C01060F3410248
:1025B0001A7008BD30100020AA6400209710002077
:1025C00038B504460D4601F051FD50B9054B9B68E6
:1025D00013B1294620469847034B04221A70034B37
:1025E0001C7038BDD40C00203010002031100020A9
:1025F00010B501F03BFD044650B907F0CDF938B1F4
:10260000044B21465B6820469847034B05221A700D
:1026100010BD00BFD40C00203010002030B52C4B72
:102620001B78042B8BB005464BD12A4B1B7803B388
:10263000294B2A4C1B7843B3294B93F90030002BCC
:1026400023DA6369ABB100F041FAA0B90024022398
:10265000202229460DF106008DF80430FEF716F809
:1026600001A800F0FBF924B1002000F05FFA00F0AF
:1026700063FA0BB030BD00F03DFA0028E6D000F060
:102680004FFAB0FA80F46409E1E72369002BF0D037
:1026900000F01CFA40B100F02DFA28B12369284659
:1026A000984700F01FFAE4E70123202229460DF1A4
:1026B00006008DF80430FDF7E9FF01A800F0CEF91F
:1026C000D7E7032BB4D0002BD3D0FFF791FFD0E78F
:1026D0003010002033100020D00C0020D40C00203B
:1026E000AA640020054B1B78032B03D1044B1B6A03
:1026F0001BB118470BB1FFF77BBF704730100020AC
:10270000D40C002070B504460E4601F0AFFC98B919
:102710000A4D54B10A4B1A78A24202D12A78032AF0
:102720000AD01C70074B00221A70074B31465B68B9
:102730002046984705232B7070BD00BF3010002045
:102740003110002032100020D40C0020024BDB6836
:1027500003B11847704700BFD40C00207047704782
:102760007047704770477047054B1B78032B03D1A8
:10277000044BDB691BB118470BB1FFF739BF70473A
:1027800030100020D40C002010B5114B1B78032B07
:102790008AB0044617D100F099F958B100F0AAF9AF
:1027A00040B10C4B9B690BB12046984700F09AF959
:1027B0000AB010BD032301A88DF80430ADF806401F
:1027C00000F04CF9F4E7002BF2D0FFF711FFEFE730
:1027D00030100020D40C00200378032B05D143785F
:1027E000807843EA0020FFF7BFBF042B05D1437870
:1027F000807843EA0020FFF7C7BF704708B5002084
:1028000000F088FE02F0E4FD03F082FABDE8084023
:10281000FFF79CBF2DE9F0415A4E5B4F354697F8C4
:1028200000C0337859490020634540F0858000B1ED
:102830002B70BDE8F0812B70554B002220461A709A
:10284000FFF78CFFEBE72B70514B032021461870EC
:1028500000F0E0FF4F4B1C7002F0BAFD4E4B4F4AA8
:102860001B781178C3F3400363F3C711204611703E
:10287000FFF777FF01F0F0FB0028D0D0012000F037
:1028800049FECCE72B70424B04202146187000F023
:10289000C1FF2046FFF763FFC1E72B703C4B0520CB
:1028A0002146187000F0B6FF2046FFF759FFB6E743
:1028B0002B703B4B00221A70354B1A780220032AEA
:1028C000187011D101F084F92146062000F0A2FF12
:1028D00000F0A6F8334B4FF00008204683F8008044
:1028E00002F082F84046CAE72146EFE72B702B4BF7
:1028F0001A786FF3C7121A702B4B01221A70FFF768
:1029000031FF8CE7254A2B70137843F08003137056
:10291000254B00221A70FFF726FF80E72B70204B13
:102920001C707CE72B70214B00221A7077E7204641
:102930002B7000F0EFF872E71AB201EB420011F8C9
:10294000122044780133013A03F00F030120092AD1
:102950003FF66AAF0FF2040E5EF822F03728000847
:10296000852800089B28000847280008B12800088F
:10297000ED28000805290008252900081D29000860
:102980002F2900084C2000206D2000204D20002021
:10299000301000203110002097100020AA64002081
:1029A000321000203810002033100020D00C0020FE
:1029B00008B5074B5B6A9847FFF72CFF00F0BCF89F
:1029C00000F0D6FF01F09EFBBDE8084001F02EB9F3
:1029D000D40C0020014B1878704700BF3010002045
:1029E00038B505460C4602F0C1F8A8B101F0C8F8A8
:1029F00002280DD101F0ECF801F02EFB40B1074B9D
:102A00001B78032B04D1A37813B1012000F082FDC1
:102A10002146284601F0C0FE38BD00BF301000201E
:102A200008B54FF4884200210748FDF7C9FE074A60
:102A300000231380064A1380064A137006F0ACFF89
:102A4000054B186008BD00BF942000209220002094
:102A50006E200020381000203410002038B50A4DB8
:102A60000A4A2B8812885C1CC4F30804A24201465F
:102A700008D00748222202FB0300FDF707FE2C8046
:102A8000012038BD0020FCE7922000206E200020AD
:102A90009420002038B50A4D0A4B2C881B88A3428D
:102AA0000BD00949222202FB04110134C4F30804AB
:102AB000FDF7ECFD2C80012038BD0020FCE700BFB5
:102AC0006E2000209220002094200020034B1888C4
:102AD000034B1B88C31A584258417047922000206C
:102AE0006E20002008B506F057FF014B186008BDA6
:102AF0003410002008B5054B186806F091FF044B10
:102B00001B78984294BF0020012008BD341000209B
:102B1000D10C0020014B1870704700BFD10C002071
:102B2000014B1878704700BF38100020014B187017
:102B3000704700BF3810002038B5FFF74BFF03285F
:102B40004ED1FFF7C3FF18B1264B1B78002B47D09F
:102B5000FFF7D0FF002843D0224C23785BBB224DE7
:102B60002846FFF797FF00283AD02B78002B37D064
:102B700006F012FF022833D91E23237006F00CFF43
:102B80001A4B1860184C2378022B21D1184B5B6923
:102B90004BB1E01C98472378032B04D1144B9B695D
:102BA0000BB16088984706F0F7FE124B1860BDE83D
:102BB000384001F00DB80D4D286806F031FF0728A8
:102BC0000ED92378013B237006F0E6FE2860D9E792
:102BD000012BE0D1064B1B69002BE4D0A01CD9E7E8
:102BE00038BD00BF38100020702000203C100020AD
:102BF000D40C0020341000201FB500234FF4E12234
:102C0000CDE90023CDE9023340B108F0BDFB6946B0
:102C1000114808F0C5FB05B05DF804FB69460E4895
:102C200008F0BEFB40F2823204214FF0904009F0E0
:102C3000E7FA40F2823208214FF0904009F0E0FAC2
:102C4000012220214FF0904009F0DAFA4FF0904332
:102C500020221A83DFE700BF186800202DE9F04F1B
:102C600091B007460C4690461E4640220021684619
:102C7000FDF7A6FD394D16B92B7801332B702B7853
:102C80000BB901232B70DFF8E09000264FF0904342
:102C900016F0010F4FF0200214BF1A835A8330231D
:102CA00083F3118807F0DDFF0023824683F3118848
:102CB00007F0D7FFDFF8B4B0294AA0EB0A004FF0C5
:102CC000000CE9FB00BC002358466146FDF724FBDD
:102CD000B0F57A7FECD30136032ED7D14FF0904375
:102CE00020221A83E1193B4600268B4230D1AA23C9
:102CF000B8F1000F8DF8003014BF562355238DF81E
:102D00000130A31CDBB28DF80230DB438DF80330B9
:102D100022462B788DF8043039460DF10500FDF779
:102D2000B5FC10AA631D52FA83F3694603F8406CA0
:102D3000A31D52FA83F3360AE21D03F8406CD2B2A7
:102D40004FF0FF33074808F080FA11B0BDE8F08F6C
:102D500013F8012B1644B6B2C7E700BF801000205D
:102D6000A08601004868002040420F009F860100B5
:102D700070B50B4C0546402200212046FDF720FD92
:102D800020461123294600F8013B0822FDF77EFC6E
:102D90002046002301220921BDE87040FFF75EBFF5
:102DA0004010002070B50B4C054640220021204603
:102DB000FDF706FD20461223294600F8013B1422A8
:102DC000FDF764FC2046002301221521BDE8704078
:102DD000FFF744BF4010002070B50A4C05463E2264
:102DE0000021A01CFDF7ECFC132365702D0A237055
:102DF000A5702046002301220721BDE87040FFF79F
:102E00002DBF00BF40100020C0B2822810B510D1E5
:102E1000084C3E220021A01CFDF7D2FC1423012205
:102E200023706270204600230221BDE81040FFF7A6
:102E300015BF10BD4010002070B5114C0546402252
:102E400000212046FDF7BCFC162323706B786370CD
:102E5000AB78A370AB7843F3C013E370EB782371C6
:102E600043F3C01363712B79A3716B79E371002372
:102E700020461A460821BDE87040FFF7EFBE00BFAC
:102E8000401000207FB506460C463E22002119481E
:102E9000194DFDF795FC194A6E7007CA01AB83E81E
:102EA0000700002C08BF1C4621232B706388AB70E1
:102EB00063881B0AEB7023792B7163796B71A3799B
:102EC000AB71A668A6B13046FDF71AFE3146024640
:102ED000E81DFDF7DBFBA068FDF712FEC11DC9B2BE
:102EE00005480023012204B0BDE87040FFF7B6BEDC
:102EF0000721F5E7421000204010002044D50008CB
:102F000070B50B4C06460D463C220021201DFDF7F6
:102F100057FC2223A5702D0A23706670E5702046A9
:102F2000002301220421BDE87040FFF797BE00BFD7
:102F30004010002010B5084C402200212046FDF72B
:102F40003FFC232323702046002301220221BDE8F9
:102F50001040FFF783BE00BF4010002010B5084CA2
:102F6000402200212046FDF72BFCA42323700023E0
:102F700020461A460121BDE81040FFF76FBE00BF92
:102F80004010002070B50B4C05460E463E22002135
:102F9000A01CFDF715FC25232370074B65701D70E1
:102FA0000023A67020461A460321BDE87040FFF7B3
:102FB00055BE00BF40100020FD0C002070B50B4C2A
:102FC0000546402200212046FDF7FAFB204641231A
:102FD000294600F8013B1622FDF758FB2046002346
:102FE00001221721BDE87040FFF738BE40100020D5
:102FF00070B50646FDF784FD0B4D044640220021C6
:103000002846FDF7DDFB28464523E2B2314600F8AD
:10301000013BFDF73BFB611C284600230122C9B29E
:10302000BDE87040FFF71ABE4010002010B5084CF4
:10303000402200212046FDF7C3FB712323700023AB
:1030400020461A460121BDE81040FFF707BE00BF29
:103050004010002070B5094C05463E220021A01CFE
:10306000FDF7AEFB722323700023657020461A46DD
:103070000221BDE87040FFF7F1BD00BF4010002005
:1030800070B5094C05463E220021A01CFDF798FBB7
:10309000732323700023657020461A460321BDE880
:1030A0007040FFF7DBBD00BF40100020F0B589B0D5
:1030B000144606460D461A2200210DF106001F4651
:1030C000FDF77EFB4AF60323ADF8003057238DF859
:1030D00002302246E34329460DF107008DF8043003
:1030E0008DF803408DF805708DF80660FDF7CEFA77
:1030F0002021684606F0C8FF192C13D92022002190
:103100006846FDF75DFB032305F11901A4F11902DF
:103110000DF101008DF80030FDF7B8FA2021684666
:1031200006F0B2FF09B0F0BDF0B40378AA2B3AD193
:103130004278A2F15503012B35D8C1788378C94371
:10314000C9B28B422FD11B2B2DD80024461D2546FA
:10315000991E671CE4B28C4220DB3344ECB213F8B6
:10316000027CA7421FD113F8013CB3EB152F1AD1F3
:103170000E4B04791D784079A54200F0F00016BF8F
:103180001C700123002360280DD1A2F15600424299
:103190004241C9B23046F0BCFFF760BD345D254402
:1031A000ADB23C46D5E7F0BC704700BF81100020AF
:1031B0002DE9F043954C964D23788BB03BB9954F54
:1031C00069693A7891423DD20BB0BDE8F0836B69F2
:1031D000042BF9D92022002102A8FDF7F1FA4FF0C3
:1031E000FF3105F10C0007F08BFFAA2826D14FF024
:1031F000FF3105F10C0007F083FF57281ED102AF05
:10320000002605F10C084FF0FF31404607F078FF2B
:103210000136F6B2032E07F8010BF4D19DF8082011
:103220009DF80910D343DBB2994207D1794B1A704C
:10323000794B9DF80A201A70002323702378002B05
:10324000C2D1BCE702AE202200213046FDF7B8FA19
:10325000DFF8D0914FF0000839785FFA88F5A9427D
:103260004AD8012300222370881E134690424EDC68
:103270000AAA1044DAB210F8200C9042A4D10AAA8B
:103280000A4412F8212CB2EB132F9DD19DF808208F
:10329000614B0339A13AC9B21B78142A94D801A012
:1032A00050F822F019330008AF330008E13300086A
:1032B000C9310008C9310008C9310008C931000806
:1032C000C9310008C9310008C9310008C9310008F6
:1032D000C9310008C9310008C9310008C9310008E6
:1032E00065330008C9310008C93100087B33000884
:1032F000A3330008EF3300080021484607F000FF21
:103300000AAB1D4408F1010805F8200CA4E7B45CE1
:1033100023449BB20132A9E79DF80A20162A1CD843
:103320000123934013F4BC0F17D09DF80B00022823
:103330000AD003280DD000287FF446AFFFF7F6FB34
:103340000320FFF7E7FB3FE70020FFF7EFFB082034
:10335000F7E70A20FFF7EAFB36E70DF1090001F075
:1033600067FB31E79DF809308DF8053001238DF8B2
:1033700004300198FFF7DAF826E7FFF7EFFD9DF834
:103380000930203BDBB2052B9CBF244AD35C9DF85F
:103390000B208DF8052088BF0023002B3FF414AFCD
:1033A000E5E79DF809308DF805300923DFE79DF842
:1033B0000B30002B7FF408AF9DF80A30252B7FF4EB
:1033C00003AF174C2278052A07D19DF80D009DF810
:1033D0000C3043EA002001F069FBFF232370F3E681
:1033E0000A46A3200DF10901FFF760FEECE69DF807
:1033F0000930012B7FF4E8AE9DF80B009DF80A30F0
:1034000043EA002001F052FBDEE600BFFE0C002084
:1034100018680020FC0C002082100020E8D500086D
:10342000FD0C0020246800202DE9F041132200212A
:103430001248134FFDF7C4F900254FF0010857F863
:10344000044B24F00F0604F00F0408FA04F40135CD
:10345000214601223046EDB208F0D2FEA4B2032D7F
:103460007483ECD1012210214FF0904008F0C8FE87
:103470004FF0904310225A83BDE8F08196640020FB
:1034800018D6000808B505F007FA18B9BDE80840D5
:1034900005F0E4BA08BD05F0EFB908B505F0FCF990
:1034A000003018BF012008BD10B5074C08221C21B0
:1034B000204603F043FD237813F0FC0F03D1BDE851
:1034C000104004F005BA10BDDC640020054B1B68F9
:1034D0002BB9054B987B003018BF012070470120A5
:1034E000704700BF841000209664002008B5084B88
:1034F00000229A73FFF7D8FFFFF7CFFF18B1BDE89E
:103500000840FFF7BFBFBDE8084005F0B5B900BFF0
:103510009664002010B578B10A4C23683BB906F0D8
:103520003BFA094B40F001001860206010BD06F026
:1035300033FA40F00100F8E74FF0904310225A832D
:10354000F4E700BF841000208810002070B5114CF3
:103550002068E8B106F064FAB0F57A7F18D94FF028
:1035600090450D4E6B6983F010036B6106F014FA01
:1035700040F001002060306806F052FA42F2107309
:10358000984205D92B69C3F300130BB9236033604C
:1035900070BD00BF8810002084100020704700001C
:1035A000F8B500F077FE58B100F0EAFA022839D1F8
:1035B00000F05CFD30B100221146104604F006FE1A
:1035C0000020F8BD00F0CEFF08B100F0D3FF174D8A
:1035D000AC7B3CB36B7B164E04F00F04ABB1002206
:1035E0001146104604F0F2FD95F90E303444002BDC
:1035F000ACBF0023002214F8010CB9BFFF23114611
:103600001A46194604F096F9DAE70A4F3A789442D6
:10361000EAD0B01819461A4610F8010C04F08AF9DD
:103620003C70E1E7FFF7BAFFCAE700BF96640020ED
:1036300014D60008FF0C002038B50378714A724C8C
:10364000052B18BF13701278A37B042A04D8DFE877
:1036500002F02503244A92006C4B00221A800123B9
:10366000A27B002A00F0BA8002F00F010139C9B232
:10367000022900F2AF80664850F82100012120F0B5
:103680000F0500F00F008140100689B240F1A180C3
:10369000002B40F09E80298338BD0BB90023DFE763
:1036A000217CE27B42EA0122617C42EA0142A17C68
:1036B00052EA0162D3D163F07F03A17AA373637AE4
:1036C00043EA0123E17A43EA0143217B53EA0163A0
:1036D000E4D0C3F307212174C3F30741E37361749A
:1036E0001B0EA374DAE7002BD8D0A17A627AA078F7
:1036F000257C42EA0122E17A42EA0142217B42EA48
:103700000162617841EA0021E07B40EA0520657CA6
:1037100040EA0540A57C50EA05603C480DBF63F0D7
:103720007F0303F00F03511AA37318BFA373018023
:103730005AB1217CE37B43EA0123617C43EA0143E4
:10374000A17C43EA0163934289D80288002A86D08B
:10375000217CE37B43EA0123617C43EA0143A17CB2
:1037600043EA01631344C3F307222274C3F30742FD
:10377000E3736274B4E7002B90D013F0800F17BF8F
:1037800003F00F0363F07F03A279A37309BFA37350
:103790006379A27863781D4943EA02230B80A27AF9
:1037A000637A43EA0223E27A43EA0243227B53EA42
:1037B00002630CD0207CE27B42EA0022607C42EA79
:1037C0000042A07C42EA00629342FFF448AF0A88BC
:1037D000BCE76983002B3FF45FAF00E033B102F038
:1037E0000F02A273FFF7DCFE0023A373FFF75CFE5A
:1037F00005F052F800287FF44FAFBDE8384005F0DF
:103800003BB800BF96100020966400209410002062
:1038100018D60008F8B505460C4600F0B1F90228A4
:103820003DD1484B1A78A2421AD0022D18D01C70F4
:103830000122454B1978A94200D182B31D7006F0D0
:10384000ABF8424B424E1860FFF71CFE05F07AF9C8
:10385000AB1E042B22D8DFE803F005314E636A006B
:103860000022E6E7013C3B4B53F824203A4C22F07F
:103870000F01012302F00F0293409BB24B831322EE
:1038800036492046FCF702FF2046FFF7D5FE00F040
:10389000EDFB28B14FF47A7005F04EF93570F8BDA4
:1038A000A37A607A40EA0320E37A40EA0340237B6C
:1038B00050EA036038D049F6404318E03378264F89
:1038C000032B08D0132226493846FCF7DFFE384682
:1038D000BC73FFF7B1FEBB7A787A40EA0320FB7A2B
:1038E00040EA03403B7B50EA03601DD01D4B9842E9
:1038F00038BF1846D0E7184F1B4913223846FCF74B
:10390000C5FE64F07F043846BC73FFF795FEBB7AB2
:10391000787A40EA0320FB7A40EA03403B7BC7E722
:103920000D4F12491322E9E74FF0FF30B4E713229D
:103930000A490948FCF7AAFE0748FFF77DFE642004
:10394000AAE700BF8C1000208D10002090100020EE
:103950008E10002018D600089664002001D60008BA
:10396000EED50008C027090024D6000837D6000885
:1039700010B500F093FE0A4B9B7B6BB1094C20689D
:1039800006F04EF8084B1B88984205D30748FFF70E
:1039900053FE06F001F82060BDE81040FFF7D6BDE9
:1039A00096640020901000209410002096100020B3
:1039B00070B5044601F0A3F90546A0B1204601F018
:1039C000A0F904F069FF064668B9084C6369984796
:1039D00032463146304604F0F9FBFFF7DFFDE3687D
:1039E000984723699847284670BD00BF80DB0008D0
:1039F00008B5FFF7D3FD08BD01207047704708B533
:103A000001F03AF8FEF7D4FFFFF7F8FF00F0B8F83E
:103A1000012803D1BDE8084000F0B8B808BDFFF7A1
:103A2000EEBF000010B5044688B068B105F0EEFDA9
:103A30000D4B834206D0184605F0E2FDFEF786FEE8
:103A4000FEF7D6FD08B010BDFFF750FDFEF7C2FF30
:103A50000328F7D1202221466846FCF7B1FE024B2D
:103A600068465B689847EDE7C00C002000B501464A
:103A700089B050B105F0CAFD0A4B834202D0184606
:103A800005F0BEFD09B05DF804FB074B1B78042B65
:103A9000F8D120226846FCF793FE024B68465B682B
:103AA0009847EFE7FC0F0020786800202DE9F04BE5
:103AB0002E4C2378834257D0207001F089FC207867
:103AC00001282BD002283CD0302383F3118807F043
:103AD000C8F80023074683F31188254CDFF89C8043
:103AE0004FF47A7600254FF0000907F0BAF8A346A4
:103AF000C01BAC46E6FB00BC42464B4658466146FE
:103B0000FCF70AFC6328F0D904F05AFE4FF0FF30AE
:103B100005F012F8BDE8F04B05F014B8FFF7A6FF6A
:103B20000020FFF77FFF00F06DF8124912480B7874
:103B30000278DC0964F34102027062F3C7130B7070
:103B4000C2E70120FFF76EFF0020FFF78FFF00F0B4
:103B50003FF8084908480B780278DC0964F3000252
:103B60000270C2F34002E8E7BDE8F08B000D0020D0
:103B70009F860100AA64002097100020A086010003
:103B8000014B1878704700BF000D002038B50F4C6E
:103B90002378052B18D125462378052B07D04CF226
:103BA000503006F070FFBDE8384002F0B1B805F0C3
:103BB000BEFE05F0A3FE0028EED0284607F0DCFC90
:103BC000284606F0EBF9E7E738BD00BF786800202B
:103BD00008B5044B00221A7005F0DEFE024B186097
:103BE00008BD00BFB0100020B410002008B520228E
:103BF0000221034808F004FBBDE80840FFF7E8BFD6
:103C000000040048024A00231370024A1360704700
:103C1000B0100020B4100020034B186980F002009F
:103C2000C0F34000704700BF0004004870B5134C5B
:103C300026784EB9124D286805F0F2FEB0F57A7F6D
:103C400082BF012323702E60FFF79AFF022813D151
:103C500023788BB1FFF73AFC70B904F085FF58B1B7
:103C6000182208490848FCF7E1FC28B900F040FA9E
:103C700010B9052000F08CF870BD00BFB010002016
:103C8000B410002098100020C464002002380728D7
:103C90006DD8DFE800F0046C0F1C2B394C5E354BFF
:103CA0001B78002B63D1344A136923F0040313619A
:103CB000012070472F4B1B78002B58D12E4A1369D7
:103CC00043F0040313612D4B1A681A60F0E7294B87
:103CD0001B78012B4BD8284A136943F00403136166
:103CE000264A136843F001031360E1E7214B1B7878
:103CF000002B3CD1204A136943F0040313611F4A8F
:103D0000136843F00203EFE71A4B1B78012B2ED800
:103D1000194A136943F004031361184B1A6842F0FF
:103D200003021A609A6842F480729A60C0E7114BED
:103D30001B78012B1BD8104A136943F0040313614D
:103D40000E4B1A6842F003021A609A6822F48072DD
:103D5000EBE7084B1B78012B09D8074A136943F09E
:103D600004031361054A136843F00403BCE7002011
:103D7000704700BFB810002000ED00E00070004068
:103D8000024A536843F480635360704700700040F8
:103D90002DE9F041022886B0044600F20281204657
:103DA000FFF774FF002800F00181824807F056FBFE
:103DB000814A936D23F400439365D2F8043823F4C9
:103DC0008063C2F80438302787F311880222062165
:103DD0004FF0904008F09AFA002585F3118887F398
:103DE000118803220121754808F090FA85F31188A3
:103DF000734E0FCE6C460FC496E803002E4684E83F
:103E000003006C4654F8043B01330CD087F311884F
:103E100054F8040C032200F00F0120F00F0008F00A
:103E200075FA86F311880135EDB2062DEAD1FEF759
:103E3000B3FA40224FF480714FF0904008F0E0F95F
:103E400030BF302383F311885E4C612323602368E5
:103E50009807FCD50023A360A36813F00C0FFBD1D7
:103E600069232360D4F8943023F4706343F4C0636F
:103E7000C4F89430236843F48073236023685905A1
:103E8000FCD5514BE360236843F0807323602368C3
:103E90009A01FCD50023A3604C4BC4F888304C4BEE
:103EA0001A6822F0070242F002021A601A6802F051
:103EB0000702022AFAD1A36843F00303A360A368B0
:103EC00003F00C030C2BFAD1002383F31188414B30
:103ED0001B680BB101209847302686F311883E4AB3
:103EE000136923F0040313613C4B9A6942F01F02EB
:103EF0009A619A6942F480729A6106F0B0FE0027D6
:103F000005F048FD87F3118800F06EF8DFF8D480E3
:103F100058F8043B01330BD086F3118858F8040C91
:103F200000F00F0120F00F0008F020FA87F311884D
:103F3000013D15F0FF05EBD1302686F311880621EF
:103F40004FF0904008F012FA85F3118886F311883B
:103F500001211A4808F00AFA85F31188FFF75CFE80
:103F600070B1D4F8983043F00103C4F89830D4F815
:103F700098309B07FBD5FFF703FF0E4806F010F8BB
:103F800005F0F4F9012005F0D3F9FFF721FEFEF763
:103F900047FD02F043FB02F0E3FA114B00221A70D6
:103FA00004E0FFF739FE00283FF4F9AE06B0BDE8A3
:103FB000F08100BF786800200068004000040048DD
:103FC00050D5000800100240120C00015555013078
:103FD00000200240D40C002000ED00E00070004002
:103FE000B8100020A80C0020704702210520FEF721
:103FF000C9BF0000014B1880704700BF020D0020B0
:10400000144B1B8841F2040293421ED840F6AC5276
:1040100093420CD950205843A0F58820A0F5B860F1
:104020004FF41673B0FBF3F01430C0B2704740F693
:10403000E44293420BD914205843A0F58030A0F5F8
:10404000E870C823B0FBF3F0EFE76420704700206E
:10405000704700BF020D0020034B18780A2894BF58
:1040600000200120704700BFB9100020034B1878D2
:10407000142894BF00200120704700BFC01000200A
:1040800008B50B4B1A8840F6AB539A420ED8094A32
:1040900013780A2B0AD80133DBB20B2B137005D12E
:1040A0000120FFF737FA044B0F221A7008BD00BF3A
:1040B000020D0020B9100020C11000200A490B4A4F
:1040C0000888137840F6E341884208D8142B0AD8B0
:1040D0000133DBB2152B137005D1FEF78FBB142B08
:1040E0009CBF002313707047020D0020C0100020F9
:1040F000034B18780E288CBF00200120704700BFAA
:10410000C110002070B5214D286800F0FDFA064668
:10411000FFF736FD022828D1FEF75CFC032824D1E6
:104120001B4C23780E2B12D8FFF7B7F978B9C82E9D
:104130001BD9FFF7A5FFFFF7C1FF00F0D7FA154B1A
:10414000984208D900232B6000F0C0FA04E040F642
:10415000B8339E42ECE72860FFF747FF237801332E
:10416000DBB20F2B88BF0F2323700B4D0B4C2A782B
:104170002378134309D0FFF74FFD30B1002028709A
:104180002070BDE87040FFF7C5B970BDBC100020BD
:10419000C1100020005C2605B9100020C0100020CE
:1041A00008B505F0F9FB20B105F0F6FB024B1860ED
:1041B00008BD0120FAE700BFCC1000204A2850D0EB
:1041C00004D80D2826D01D2832D0704745F221236F
:1041D000984211D045F2232398420DD04F283FD169
:1041E0008A78002A35D0284A13785BB30133DBB2D2
:1041F000042B88BF012305E0244A8978137819B17C
:1042000043F001031370704723F001031370204B38
:10421000196070471D4A8978137831B143F0020361
:104220001370072B1CD1FFF7BBBF23F00203EDE790
:10423000164A8978137811B143F00403F0E723F0AC
:104240000403E3E7114A137843F008031370192BB2
:10425000E8E70E490B7823F008030B700C4B1A604B
:1042600070478A7852B1084B1A7812B100221A703E
:104270007047064A137843F01003E7E703490B78C9
:1042800023F01003E9E700BFC2100020C81000208F
:10429000CC10002008B5134B1878134B50B1C04315
:1042A000002240F300001A701146C0B203F08EFFE6
:1042B000012008BD1B78002BFAD0013B032BF7D857
:1042C000DFE803F002060A0CFF22FF211046EDE7AB
:1042D00000221146FF20E9E70022F6E70021FF2235
:1042E0000846E3E7C3100020C210002070B5294D36
:1042F000294C286850B305F093FB40F6B833984238
:1043000024D900232B60254D2B78072B30D105F0C5
:1043100043FB58B305F040FB214A2060137801337A
:104320001370204B1E8801F009FE304601F0B5F8ED
:1043300004F0B2FA08B904F0ABFB04F041FAFEF75E
:1043400075FE194B01221A7000232B70206860B192
:1043500005F066FBFA2808D9114B1A78511C062A79
:1043600019700ED900221A70226070BD0120D3E7A7
:10437000192BE9D104F090FA08B904F089FB0B4B32
:10438000E0E705F009FB18B105F006FB2060ECE75B
:104390000120FBE7CC100020C4100020C810002032
:1043A000C310002012110020E0100020C2100020D5
:1043B00030B589B004460D46202200216846FCF73E
:1043C000FFF9AB232A4621460DF101008DF800309C
:1043D000FCF75CF9012200231DF8021001320B44A6
:1043E0001D2A9BB2F8D120216846ADF81E3005F099
:1043F0004BFE09B030BD000010B50378AB2B88B080
:1044000021D1024600F11C01002312F8014F234480
:104410008A429BB2F9D1817FDAB2914213D1C27F35
:10442000B2EB132F0FD14378013B062B0BD8DFE8FB
:1044300003F0040C0A183F0A4B00264B82781A70CE
:10444000254B00221A6008B010BD8378002B234B47
:1044500014BF012200221A70F5D0012004F068FF79
:10446000F1E78378A22B0AD0A32B11D0A12BEAD19C
:10447000C078003018BF0120FEF7ECFDE3E7C178FB
:104480004FF09043202209B11A83DCE75A83DAE720
:104490004AF20433ADF800304FF090431B69C3F388
:1044A0008013032168468DF80230FFF781FFCAE7C9
:1044B00005238DF80030FFF763FB094B8DF80100F1
:1044C0001B69C3F34003ECE780784E28BBD8FEF7A6
:1044D000D7FDB8E7C2100020CC100020D01000207B
:1044E00000040048084B1B7807B54BB14FF48173AB
:1044F0008DF8061001A80321ADF80430FFF758FF2E
:10450000012003B05DF804FBD010002010B5044674
:10451000FEF7B8FF0B4B01221A700B4B1C7005F015
:104520003BFA0A4B18600A4B00221A70094B96227C
:104530001A60094AFF231370084A1370084A13705F
:1045400010BD00BFD1100020D8100020D4100020D2
:10455000D9100020DC100020D2100020DA1000203A
:10456000DB100020024B1878003018BF0120704784
:10457000D11000202DE9FF4101AD0A22164928463D
:10458000FCF784F80024002320461A46194601341B
:1045900003F0D0F9582CF6D1104B1B7803F0FD0333
:1045A000012B15D100240E4E0E4FDFF8408008E09D
:1045B0000D49285D3B7898F80020097803F0BAF996
:1045C00001340A223378B3FBF2F3E2B29342EFD81C
:1045D00004B0BDE8F08100BF68D50008D11000200C
:1045E000D9100020D2100020DB100020DA100020AB
:1045F00010B5214B1A78022A194616D0032A2CD05E
:10460000012A07D11D4A1E4813780078984206D91E
:104610000A33137005F0C0F91A4B186010BD0BB9BE
:104620000A23137002230B70F4E7154B164A1B780C
:10463000164C1D2B164B0AD8FF20107000221A7042
:104640002270144B40F6B8321A600323EBE70020C7
:104650001070FF2220701A70F3E700221A70FEF724
:1046600023FF0D4B9B7B002BD4D104F015F90028C0
:10467000D0D1FEF710FFCDE7D1100020D9100020D7
:10468000D8100020D4100020DB100020D210002011
:10469000DA100020DC1000209664002008B5084BDA
:1046A0001B785BB1074B186805F0BAF9064B1B681D
:1046B000984203D9BDE80840FFF79ABF08BD00BF84
:1046C000D1100020D4100020DC10002007B50023FA
:1046D00069460448CDE9003306F030FE03B05DF8CA
:1046E00004FB00BF0C680020FFF7F0BF07B50548CA
:1046F000694606F025FE019820F0784003B05DF889
:1047000004FB00BF0C68002010B50446FFF7EEFF65
:10471000001B10BD00210078FDF752BF7FB5144883
:10472000FEF766FC4FF47A7006F0ADF91222002114
:1047300001A8FCF745F80F4B009300238DF80430D7
:104740000523ADF806305A238DF8083001238DF883
:104750000B3068464FF42073ADF80E30FEF72EFC98
:104760004FF47A7006F08FF907B05DF804FB00BFD4
:104770004AD6000802201CB438B50D46044628B9B4
:10478000002914BF0420012000F087FE294620469E
:10479000FFF7A8FE012038BDF8B5A0F5FC43403B6B
:1047A00004460D460C2B00F28480DFE803F0070777
:1047B000070715151515374A4A4A75003E4B8D787F
:1047C0001C4414F8400C1DB100F012FB002501E060
:1047D00000F05EFB2846F8BD8D78384EA0F5FC440D
:1047E000443CBDB906EB840716F82420EBB29A428C
:1047F000ECD93B440135587800F04AFBF4E73B44E0
:104800000135587800F0F4FA16F82420EBB29A42F9
:10481000F5D8DBE7002506EB8407F5E78B78002B5E
:10482000D4D0274C2568002DD0D1E32000F0E0FA49
:104830002C2000F0DDFA05F0AFF840F00100206018
:10484000C8E7FFF79DF9022801D00125C2E7AD783E
:104850001C4E1D483023A5B1483C347083F31188A9
:1048600003680BB105F05EFF164B184A184916484D
:1048700005F04EFF002181F311883078FDF742FFEB
:10488000A8E7357083F3118803680BB105F04AFF80
:10489000002383F31188D8E7FFF772F90228D4D1F7
:1048A000FFF7BAF90028D0D1FFF7AAFBFFF72EFED9
:1048B000CBE7FFF783FCC8E771580008050D00201F
:1048C00008110020E8100020EC1000201547000817
:1048D000400D030010B5012004F02AFD4FF0904474
:1048E00001224FF400714FF0904007F089FC4FF423
:1048F0000073A36100224FF48061204607F080FC22
:104900000020FEF779F9FDF735FE05F045F8074B75
:1049100040F0010018601023238380232383044B7D
:1049200008221A83BDE8104001F040BB04110020AA
:10493000001C004838B5274C2068B0B105F070F86D
:10494000B0F5FA6F11D9244B19780022226061B1B9
:104950004FF090441A704FF00073A3614FF4FA7057
:1049600006F091F84FF40073A3611C4D2868A8B1BC
:1049700005F056F840F6B83398424FF090444FF0A7
:104980001002174B20D900212960628308225A8324
:1049900004F04AFE830701D480236383114C20680E
:1049A00060B105F03DF8B0F5FA7F07D90023E320A8
:1049B000236000F06DFA2C2000F06AFAFFF796FCF5
:1049C000BDE8384001F0C3BD228308221A8380234A
:1049D0002383E3E7E4100020E0100020041100200E
:1049E000001C0048081100200E4B1B7810B52BB19D
:1049F000FFF794FE04F0D0FF0B4B18600B4C2378AC
:104A000073B104F0C9FFB0F57A7F09D2FFF7B8F8A7
:104A1000022805D1FFF782FEFDF7EAFD002323708F
:104A200010BD00BFE0100020E4100020040D0020A5
:104A30007FB54378452B19D11222002101A8FBF73D
:104A4000BFFE0C4B009300238DF804300523ADF816
:104A500006305A238DF8083001238DF80B30684654
:104A60004FF42073ADF80E30FEF7A8FA07B05DF8EA
:104A700004FB00BF02201CB44FF090430A491A699E
:104A80000878C2F3802282420DD01A69C2F38022D4
:104A9000904208D01869C0F380200028087008BF31
:104AA0000220FFF703B87047150D002010B540F63F
:104AB000C60444434FF47A70B4FBF0F4A4B203F09C
:104AC000EBFEC8B100230F491A46013311F8010B60
:104AD000DBB2C02B0244F8D10B490023013311F89B
:104AE000010BDBB2C02B0244F8D13C205043074BF2
:104AF000B0FBF3F00444A4B22046BDE81040FFF739
:104B000079BA00BF11650020D1650020FB030100C8
:104B100008B50378AA2B03D0AB2B05D0002008BD25
:104B2000FEF702FB0120FAE7FFF766FCFAE70378DD
:104B3000AA3B012B01D8FFF7EBBF704703280DD824
:104B400005290BD8102A09D801EB0111662303FBB4
:104B500000101044024B33F81000704701207047DA
:104B6000D2D70008FFF7EABF012070470120704745
:104B7000704708B5FFF7FCFF08BD000013B502AB96
:104B800003E903000F4B1B78B3B99DF8023000987E
:104B900073B16AB100F052FD04460146009800F07E
:104BA00019FD0099204602B0BDE8104001F088BB15
:104BB00000F02CFD0446F4E7009800F03FFD00995A
:104BC000F1E700BF11110020034610B400885C8893
:104BD0000A4640EA044099885DF8044BFFF7CEBFCF
:104BE0000120704710B500210446FFF7EDFF214674
:104BF000FFF7BFFF10BD704708B500F0E9FBFFF7F6
:104C0000FAFF46F2A810BDE8084005F03CBF08B521
:104C1000FFF7F2FFBDE8084004F01ABF08B5FFF740
:104C2000EBFFBDE8084004F01DBF38B50121054683
:104C3000FFF7CAFF29460446FDF7D2FE08B9002057
:104C400038BD2946204604F021FC0028F7D029462B
:104C5000204604F081FA0028F1D02946204604F0CD
:104C600093FB0028EBD02946204604F017FA0028D1
:104C7000E5D0AB785BB147F603439C421DD00AD820
:104C8000B4F5F84F16D047F601439C4217D028469A
:104C9000FFF76AFFD4E747F65B439C4215D047F61F
:104CA0005C439C420ED047F65A439C42EFD101F040
:104CB000C9F8ECE7FFF7ABFFC1E701F0C9F8FFF770
:104CC000ADFFBCE701F0B2F8E1E701F0BEF8DEE7C6
:104CD00008B504F00AFE03F079FF00F030F8012077
:104CE000BDE8084004F002B808B500F02DF8002037
:104CF00003F0FCFFBDE8084004F0FCBD7047012054
:104D000070474FF0904310F0020F4FF0800214BF35
:104D10001A835A83704708B5012280214FF09040D2
:104D200007F06EFA4FF0904380225A8308BD10B509
:104D30000446FFF7E3FF2046FEF73AFE10BD08B534
:104D40000020FFF7F4FF08BD08B504F065FCFFF78D
:104D5000EEFF08BD10B504F05FFC074B1A788242E5
:104D6000044607D0187004F017FE044B1860204664
:104D7000FFF7DDFF10BD00BF101100200C11002057
:104D800010B586B06C4684E803009DF802300BB184
:104D900000F08EFF0023ADF8163094E80300ADF864
:104DA000141089B20490ADF80C0004AC29B994E851
:104DB000030000F0B5FE06B010BDBDF80C204FF6A4
:104DC000FF739A42F3D02046FFF70AFF0028EED186
:104DD000F1E7008800F054BC08B529B101F0AAFC45
:104DE000BDE8084001F07ABD01F002FDF8E70000DF
:104DF00010B50446002843D0031FDBB2A02B11D806
:104E0000204B0146186804F08BFC20B1204600F0CE
:104E1000FBFE00F07DFF204600F0EEFEBDE81040F6
:104E200000F076BF00F12003DBB2072B07D800F0BB
:104E300007040120A040C0B200F014FFEEE700F12B
:104E40005B03DBB2022B05D80F4ABDE81040D05CF3
:104E500004F010BC00F15803DBB21A2B06D80B4A41
:104E6000BDE8104032F8130004F020BC3334E4B243
:104E7000122C05D801F05EFCBDE8104001F02EBDFB
:104E800010BD00BF840E002002DB000806DB000816
:104E900008B50346A0B3021FD2B2A02A05D800F07D
:104EA000B3FEBDE8084000F033BF00F12002D2B2EB
:104EB000072A07D800F0070301209840C0B200F08D
:104EC000D9FEEEE700F15B02D2B2022A04D800203C
:104ED000BDE8084004F0CEBB00F15802D2B21A2A55
:104EE00004D80020BDE8084004F0E0BB3333DBB257
:104EF000122B05D801F07CFCBDE8084001F0EEBCA7
:104F000008BD38B505460C46FFF772FF1CB92846A8
:104F1000FFF7BEFF38BD6420013C05F0B4FDA4B22C
:104F2000F4E708B539280CBF50210021FFF7E9FF4D
:104F300008BD08B528B100F095FEBDE8084000F0B6
:104F4000E7BE08BD08B528B100F094FEBDE80840F2
:104F500000F0DEBE08BD00002DE9F04787798478B7
:104F600081460D4600F06EFE3F09804600B3A04624
:104F7000F4B1C5F3072303F0F002402A09D005F18C
:104F80002002D2B2072A25D91FB903F0E003202B53
:104F900023D0A94B93F8018018F0040808D0022010
:104FA00000F010FF00F04EFE80F001005FFA80F884
:104FB000C5F303330B2B41D8DFE813F011001100C8
:104FC00062006200CD00E30040004000E8004901BB
:104FD000590159014FF00008EAE7B846E8E7C5F380
:104FE0000723C5F3032613F0F00F18BF3601EFB205
:104FF00094B156B107F12003DBB2072B304600D93C
:105000003FB900F02FFE00F083FE3846FFF7F0FEB8
:1050100014E000F03DFEF6E73846FFF739FF6EB1C9
:1050200007F12003DBB2072B304600D917B900F097
:1050300021FE01E000F034FE00F06AFEC5F3033506
:10504000083D032D03D804F0E7FAFFF770FEB8F12E
:10505000000F00F0638100F0EDFD10F0010040F062
:105060005D8189F8020000F0DDFD00F049FA484654
:1050700000F06AF900F0D6FDBDE8F04700F04CBA48
:10508000C5F3072303F0F003C5F30326202B5FFAD3
:1050900085FA18BF3601BAF1000F0FD0BAF1010F2F
:1050A00041D0002C49D0002F40D099F80630D907C4
:1050B00041D56FF3071389F8063037E05E4B5B7814
:1050C00058070FD43CB126B1304600F0CBFD00F0BC
:1050D0001FFE00209AE72046FFF7DAFE002EADD033
:1050E0003046A4E784B137B900F0E8FD3043C0B2E0
:1050F000FFF71FFFA2E7012FF6D100F0DFFD3043DD
:10510000C0B200F0E7FD99E72FB900F0F5FD304699
:10511000FFF718FF92E7012F90D03046FFF712FFFC
:1051200000F0EAFD8AE71CB1052F87D83046DFE79B
:10513000042F83D8EBE7504668E7002FE7D0BAF199
:10514000390F0CBF4FF4FA50012005F09CFC50467B
:10515000FFF79EFE72E7C5F3812343B1012B7FF475
:105160006DAF64B1C5F3090004F0A0FA66E724B19D
:10517000C5F3090004F07EFA60E72046FAE720460E
:10518000F2E72146E8B2FFF727FE57E715F4407F24
:105190002AD1002C7FF452AFC5F34213EA064FEA3E
:1051A000830348BF0F24DBB248BF9C4005F00F00CB
:1051B00048BFE44300FA03F0C5F3812348BFA4B21B
:1051C00080B2022B40EA040008D00AD8012B02D09A
:1051D00000F06EF932E700F063F92FE700F070F9A4
:1051E0002CE700F05AF929E7C5F30122D3B204B342
:1051F00002F00103002B3FF421AFC5F34210800001
:10520000C3B205F00F00984082B215F010001EBF27
:105210000F209840C043C5F3812318BF80B2022BF2
:1052200040EA02000DD00FD8012B07D000F094F90E
:1052300004E75B08DEE700BFAA64002000F084F901
:10524000FCE600F091F9F9E600F048F9F6E6EFB275
:10525000C5F3032624B1304600F052F9384647E73B
:105260003846FFF76FFE304600F056F9E6E6EEB23C
:10527000A6F1F003042B3DD8DFE803F003220E155E
:105280001E003CB1042F3FF6D9AEC5F3042000F058
:105290004FF9D3E6052FF6E7C5F30420002CE3D140
:1052A00000F02EF9CAE624B1C5F3042000F021F97C
:1052B000C4E600F01BF9C1E6194B5B785B0704D428
:1052C000C5F30420002CCFD0EAE74CB1C5F3042489
:1052D000204600F015F90321204600F04FFDADE611
:1052E000012000F06FFD012F7FF6A8AE022000F034
:1052F00069FDA3E62CB10FB1304687E6C5F3042063
:10530000CEE747B1392E0CBF4FF4FA50012005F01B
:10531000BAFB30461CE7C5F30420A5E7BDE8F087DB
:10532000AA64002038B501880446807800F0B4F9FA
:10533000054600F021F900F0AFF829462046BDE807
:105340003840FFF709BE000037B58588044601469E
:10535000022201A8FBF79AF9F5B1BDF804204FF637
:10536000FF739A4218D02046FFF75FFC70B900F037
:1053700069FC88B1A3787BB1084B5B785B070BD5E0
:10538000022003B0BDE8304000F01CBD2046FFF70E
:10539000C9FF2046FFF726FC03B030BDAA640020F9
:1053A00008B5002004F066F9002004F07FF900F051
:1053B0007FFC00F0ADFC01F0ADFABDE8084001F063
:1053C0008DBA08B500F028FCBDE80840FFF7E8BF3B
:1053D00008B500F057FCBDE80840FFF7F2BFC0F386
:1053E00003320E3202F00F02092A10B5C4B21BD8E4
:1053F000012101FA02F340F20332134203D113F008
:1054000010000DD110BDF02C10D004D8E72C8CBFAB
:1054100000200120F6E7F42C14BF00200120F1E762
:10542000E72C03D9F12CF7E70020EBE70846E9E782
:1054300037B5858804460146022201A8FBF726F904
:105440006DB1BDF804204FF6FF739A4207D0208853
:1054500000F016F903B0BDE83040FFF7C0BF0020F0
:1054600003B030BD82B002AB03E9030002B0704765
:1054700082B002AB03E9030002B07047704708B581
:10548000FFF7FCFF08BD000008B5FFF7F8FF014B70
:10549000188008BD121100207047FFF7F5BF00000B
:1054A000024B1B881843FFF7EFBF00BF121100200B
:1054B000024B1B881840FFF7E7BF00BF1211002006
:1054C000024B1B885840FFF7DFBF00BF12110020BE
:1054D000704708B5FFF7FCFF08BD000008B5FFF7EF
:1054E000F8FF014B188008BD141100200020FFF7C1
:1054F000F5BF012303FA00F080B2FFF7EFBF000011
:10550000012303FA00F0034B1B88184380B2FFF716
:10551000E5BF00BF14110020012303FA00F0034B84
:105520001B8823EA0000FFF7D9BF00BF1411002039
:10553000012303FA00F0034B1B88584080B2FFF7A9
:10554000CDBF00BF14110020024B1B881843FFF78A
:10555000C5BF00BF14110020024B1B881840FFF785
:10556000BDBF00BF14110020024B1B885840FFF73D
:10557000B5BF00BF14110020704701F0070330B51C
:10558000C908012402EB81029C40E4B2013A0021E7
:1055900012F8015F20FA01F343F300036B4023404C
:1055A00001316B4004291370F2D130BD10B50022D7
:1055B00000F00704C00801EB800110468B5CE3405B
:1055C00003F00103934001321843042AC0B2F5D11D
:1055D00010BD000017B40C46C0F307210529ADF833
:1055E00004000DD89DF80430102B09D803EB0113EB
:1055F000054A1944204603B05DF8044BFFF7BDBFD0
:1056000003B05DF8044B70471611002082B0ADF86E
:105610000400C0F3072005280AD89DF80430102B99
:1056200006D800EB00100449184402B0FFF7BEBFD3
:10563000002002B0704700BF161100200E4B73B55A
:105640001D880E4BADF804001B881D43ADB20F241E
:1056500045FA04F3DB07E6B206D414F1FF34F7D2BF
:105660000026304602B070BD0199304600F039FE88
:1056700080B20128F1D0F4E71411002012110020AB
:1056800007B5ADF804000198FFF7D8FF019903B002
:105690005DF804EB00F025BE13B5104BADF8041017
:1056A0001B782BB1019802B0BDE81040FFF7E8BFAE
:1056B00070B10198FFF7C2FF044601460198FFF759
:1056C00089FF0199204602B0BDE8104000F009BEF4
:1056D0000198FFF79BFF0446F3E700BF111100207C
:1056E000F8B50C4B0C4E1C780C4D3378A34200D10E
:1056F000F8BD05EBC40335F834005F889A88D98873
:1057000040EA074042EA01410134FFF7B1FE04F0EC
:105710000704EAE7931100209211002052110020A3
:10572000064B10B418885C889A88D98840EA0440EF
:1057300042EA01415DF8044BFFF79ABE4A1100208E
:1057400084B0ADF80C0049B180B24FF6FF73C31AB4
:105750005842584180F0010004B070470120F9E739
:10576000F0B50D4B0D4C1B7826780D4CB34201D192
:105770000020F0BD04EBC3056F788F4206D114F80A
:105780003370874202D1AD78954203D1013303F0E3
:105790000703EBE70120ECE79311002092110020B2
:1057A000521100201F4A2DE9F843937913F0F00FAE
:1057B0000DD193785BB11C4B95881C781B4B92F8EC
:1057C00001801F7892F80090194EBC4201D1BDE8CB
:1057D000F88329461088FFF7B3FFF8B106EBC4033E
:1057E000597841451AD116F83410494516D199789F
:1057F000A1B99988491B89B2C7290FD8907901218D
:1058000061F3071090719A79064861F307129A7153
:10581000FFF79AFDBDE8F843FFF762BF013404F0DB
:105820000704D2E74A1100209311002092110020B2
:10583000521100202DE9F04FAD4D89B001460446CC
:10584000062202A8FAF722FFAB882A88019319469C
:105850001046FFF775FFA7780090AB46002800F0D0
:105860004981B4F804A0019BAE7894F8009094F8B4
:105870000180AAEB030399B2002E00F0F380A8790F
:10588000C72900F0F00300F2AC802188002B72D110
:105890008A423E460FD177B9012363F30710A871FE
:1058A000FFF73EFF2846FFF74FFDAB79A371304667
:1058B00009B0BDE8F08F8DF818908DF81980514629
:1058C0000698FFF73DFF28B127B93A4641464846BA
:1058D000FFF746FF8DF818908DF81980514606980D
:1058E000FFF72EFF054618B9002F3DD10026DEE751
:1058F000002F39D13A4641464846FFF731FF064668
:105900000028F3D18DF808908DF809800298FFF7F0
:10591000B7FEC0F303310B2913D801228A4012F4D9
:10592000406FC3B21AD112F00C0F0FD1910708D0FB
:1059300010F4706F01D0002BB9D02033DBB2072BED
:10594000B5D92046FFF700FD2E46B0E710F4706F82
:10595000F3D0A27912F0F00FEFD1A8E7EF2BA6D980
:105960000F33DBB2022BEBE79BF8063043F0010369
:105970008BF80630BAE78A420CD15FB9A071204695
:10598000FFF7E2FC082221462846FAF77FFEFFF7E0
:10599000C7FE8CE72046FFF74BFDE8B1E7B19BF867
:1059A00006301F2B0DD9BBF80020ADF810200022C7
:1059B0008DF81220ADF814A08DF8163004A8FFF76A
:1059C000C3FC082221464A48FAF760FEFFF7EAFEC8
:1059D000FFF7A6FE009E6AE72046FFF7B5FC01260A
:1059E00065E7CBB900938DF80A7002ABADF80CA057
:1059F0008DF808908DF8098093E80300FFF732FDD9
:105A00002846FFF7A1FC009B082219462846FAF712
:105A1000D7FEFFF785FE69E723889A420AD14FB97E
:105A2000A0712046FFF790FC082239462846FAF775
:105A3000C7FE3CE72046FFF7FBFC0028CCD0002F38
:105A4000CAD09BF806301F2BBBD9BBF80020ADF89D
:105A5000182000228DF81A20ADF81CA08DF81E30F9
:105A600006A8ACE7C7292FD83E46002FB4D023881C
:105A70009A421CD1AB79DA0713D413F0F00210D09C
:105A8000F02AA37106D0DBB2C3F30312013262F332
:105A90000713A3712046FFF757FC0822214614483C
:105AA00073E7082221461248FAF7F0FDFFE6204688
:105AB000FFF7BEFC002884D1AB79204643F00103F8
:105AC000AB71FFF741FCF2E68DF80A70ADF80CA05F
:105AD0008DF808908DF8098002AB93E80300FFF77A
:105AE000C1FC082231462846FAF76AFE4FE700BF9C
:105AF0004A110020002F3FF46FAF2046FFF798FCBB
